:020000040000FA
:0400000006EF00F017
:0200080034D2F0
:10000C00ECD9F3D824DAF28EF28C949A94989388E3
:10001C00938C0C0E206E6CD89268939E0D6A126AAB
:10002C00136A236A286A426A42C029F0186A176A5E
:10003C00166A8B988B9A1C6A1D6AD39E010E516EA0
:10004C00546A800E556EAEDB030E536E526AD6D9CF
:10005C00CD849D80B8829D8AF28C010E516EBBDBE3
:10006C009D80C196C18496D924C02DF0B88203001E
:10007C00FDD703000300FED7020E006E002EFED744
:10008C00052EFAD71200032A8E0E016E010E006E99
:10009C00002EFED7012EFAD7022EF6D7032EF4D758
:1000AC0012006DD8A00E256E71D81F52D8A4F9D7A6
:1000BC001AC025F06BD819C025F068D860D8A10EED
:1000CC00256E64D8216A32D825C01EF073D057D85B
:1000DC00A00E256E5BD81F52D8A4F9D71AC025F0F4
:1000EC0055D819C025F052D81EC025F04FD862D073
:1000FC00C78EC688C69E0C0E205CD8A406D0C686B9
:10010C00C694C692C690010EC86E2052D8A404D0D4
:10011C00C696C684C682C690030E205CD8A404D0B2
:10012C00C696C684C682C680C68A120020500A08AB
:10013C00D8B007D021A002D0C59A01D0C58AC586F7
:10014C0001D0C784C69EC69C006AC7B0001E00C002
:10015C004CF0006A9EB6001E4C5000144E6E4EA021
:10016C00F3D7C9CF25F09E96C588C7902FD82050BD
:10017C000A08D8B002D0C59601D0C79412002050FE
:10018C000A08D8B002D0C58221D81200C69E25C05C
:10019C00C9FF1CD8C5AC02D01F6801D01F6AC6AEFF
:1001AC0004D020500A08D8B0F1D720500A08D8B093
:1001BC00C688120020500A08D8B005D0C7B4FED7A4
:1001CC00C58404D802D0C7A8FED71200226A222AFE
:1001DC00FF0E225CD8B008D09EA6F9D79E961200CE
:1001EC009EA6F5D79E9612001200206A120049C0F6
:1001FC00E9FF4AC0EAFFEFCF2BF02B52D8B413D053
:10020C004B6A010E2B5CD8A00ED04B2A4B504924C4
:10021C00E96E000E4A20EA6EEFCF43F0CFD82B5098
:10022C004B5CD8A0F2D712002A6A640E445CD8A0AA
:10023C000DD044C005F0640E096E07DB05C02AF032
:10024C0000C044F0300E2A24436EB8D82AC009F0FE
:10025C00056AE8DA00C04CF044C005F00A0E096EDD
:10026C00E1DA001E4C5000104E6E4EA00DD044C072
:10027C0005F00A0E096EE9DA05C02AF000C044F058
:10028C00300E2A24436E9AD8300E4424436E96D8EE
:10029C0012002A6A44C005F045C006F0100E096E23
:1002AC00270E0A6EC4DA001E00A014D044C005F05C
:1002BC0045C006F0100E096E270E0A6EDADA05C07C
:1002CC002AF000C044F001C045F0300E2A24436EE1
:1002DC0075D80CD044C005F045C006F0E80E096E88
:1002EC00030E0A6EA4DA001E00A014D044C005F060
:1002FC0045C006F0E80E096E030E0A6EBADA05C0A8
:10030C002AF000C044F001C045F0300E2A24436EA0
:10031C0055D80BD044C005F045C006F0640E096EEC
:10032C000A6A85DA001E00A013D044C005F045C04F
:10033C0006F0640E096E0A6A9CDA05C02AF000C049
:10034C0044F001C045F0300E2A24436E37D80BD050
:10035C0044C005F045C006F00A0E096E0A6A67DA59
:10036C00001E00A012D044C005F045C006F00A0ED5
:10037C00096E0A6A7EDA05C02AF000C044F001C09A
:10038C0045F0300E2A24436E19D8300E4424436EA7
:10039C0015D81200010E156E03D843C024F01200BC
:1003AC001504D8A40AD043689EAAFED79EBAAECF35
:1003BC0043F0ABA202D0AB98AB8812001504D8A4C2
:1003CC000BD09EA8FED743C0ADFFACA2FED7010E4A
:1003DC00026E036A58DE120012008F0ED316D38CF5
:1003EC00D39AD388E06AF86AC09EC2907E6A7F6A0C
:1003FC006B9E6D9E806A816A826A12005252D8B4DA
:10040C000CD0100E525CD8B408D0200E525CD8B46C
:10041C0004D0300E525CD8A4526ACDB05280530432
:10042C00D8A402D052925296020E535CD8A402D099
:10043C0052825296030E535CD8A402D0528252863A
:10044C00040E535CD8B4529652C0CDFF1200010E6C
:10045C00156E670EAF6EB06AB886AC84AC98AC8A79
:10046C00AB8EAB881200E8CF0EF0D8CF0FF0E0CFF8
:10047C0047F0E1CF32F0E2CF31F005C03EF006C0DC
:10048C003FF009C040F00AC041F000C033F002C098
:10049C003CF003C03DF001C02EF007C035F008C0A1
:1004AC0036F00BC037F00CC038F004C034F04CC040
:1004BC0039F04EC03BF0E9CF30F0EACF2FF04DC011
:1004CC003AF09DA005D09EA003D044D99E90EBD0CD
:1004DC00010E516E8FD99D805DDF24C02DF010EE82
:1004EC00F1F02E0EF66E090EF76E08DAF10E496E6B
:1004FC00000E4A6E010E156E7ADE0D0E436E010E65
:10050C00156E5CDF0A0E436E010E156E57DF610E21
:10051C002D5CD8A441D08B8A8B88010E516E6AD980
:10052C009D901C6A1D6A10EEF1F0400EF66E090EDD
:10053C00F76EE4D9F10E496E000E4A6E010E156E7F
:10054C0056DE1C681D681C2AD8B41D2AA00E1B6E12
:10055C001CC019F01DC01AF0A4DD1EC04FF04FC016
:10056C0044F0010E156E60DE2C0E436E010E156EFE
:10057C0025DF1CC005F01DC006F0096A800E0A6E4E
:10058C0056D900B0E0D71C6A1D6A010E516E23D9F2
:10059C008B9A8B989D8003D0010E516E1CD9450E01
:1005AC002D5CD8A45DD04890F2BE4880F29E8B8A18
:1005BC008B88010E516E1ED99D90B8929D9AF29C1B
:1005CC001C6A1D6A1C681D681C2AD8B41D2AA00E42
:1005DC001B6E1CC019F01DC01AF01E6A78DD1CC001
:1005EC0044F01DC045F0010E156E53DE10EEF1F017
:1005FC004E0EF66E090EF76E81D9F10E496E000E95
:10060C004A6E010E156EF3DD2C0E436E010E156E47
:10061C00D5DE050E026E036A36DD1CC005F01DC06A
:10062C0006F0096A800E0A6E02D900B0CDD710EE22
:10063C00F1F0560EF66E090EF76E60D9F10E496E9A
:10064C00000E4A6E010E156ED2DD48A0F29E48B027
:10065C00F28E010E516EBFD89D808B9A8B9804D070
:10066C00010E516EB8D89D80510E2D5CD8A404D0CB
:10067C00010E516EBFD89D90470E2D5CD8A412D0A0
:10068C0010EEF1F0680EF66E090EF76E37D9F10E1A
:10069C00496E000E4A6E010E156EA9DD010E516EEB
:1006AC009AD89D80B88232C0E1FF31C0E2FF3EC0D3
:1006BC0005F03FC006F040C009F041C00AF033C05D
:1006CC0000F03CC002F03DC003F02EC001F035C07C
:1006DC0007F036C008F037C00BF038C00CF034C04F
:1006EC0004F039C04CF03BC04EF030C0E9FF2FC0D5
:1006FC00EAFF3AC04DF00EC0E8FF0FC0D8FF47C06C
:10070C00E0FF1000C09E7E6A7F6A1028116ED880B0
:10071C007E367F36112EFCD7C094C092C080C29416
:10072C00C296C298C29A10B0C28410B2C28610B4DB
:10073C00C28810B6C28AC280020E056E9DDCC282CF
:10074C000000C2B2FED7C2907E6A7F6AC4CF2CF082
:10075C00C09E1200800ECF6E9D80422A182AB8824D
:10076C003B0E185CD8A402D0172A186A3B0E175CF3
:10077C00D8A402D0162A176A1604D8A402D0F4D82A
:10078C00166A3B0E425CD8A00CD0426A282A3B0E5B
:10079C00285CD8A006D0286A232A23501708D8A092
:1007AC00236A12005152D8B454C0D6FF5104D8A4B5
:1007BC0004D055C0CFFF54C0CEFF020E515CD8B44C
:1007CC0054C0CCFF030E515CD8A404D055C0B3FF69
:1007DC0054C0B2FF12005152D8B4D58E5104D8B4C3
:1007EC00CD80020E515CD8B4CA84030E515CD8B4CF
:1007FC00B18012005152D8B4D59E5104D8B4CD90CA
:10080C00020E515CD8B4CA94030E515CD8B4B190AA
:10081C001200006A0950056212000A5006621200AA
:10082C0000681200006809500560006A1200006A36
:10083C0006500A5CD8A012000A50065C04E309506A
:10084C00055CD8B01200001E12000952D8B4120078
:10085C00006A080E046ED890053600360950005E0A
:10086C000580D8B003D0059009500026042EF3D78C
:10087C00120005C007F006C008F009C00BF00AC052
:10088C000CF0026A036A0BC005F00CC006F0096A92
:10089C000A6ABFDF00A003D0056A066A1200100EB8
:1008AC00046ED89007360836023603360B50025EBB
:1008BC000C50035A0780D8B005D007900B50022675
:1008CC000C500322042EEDD707C005F008C006F02B
:1008DC0002C000F003C001F0120005500902F3CF72
:1008EC0000F0F4CF01F005500A02F3500126065037
:1008FC000902F350012606520A0212000900F5CF34
:10090C0005F0F5CFE7FF04D00900F550056E06267B
:10091C000552D8B412000900F5CFE4FF052EFBD721
:10092C0012000E496E746572727570742053656591
:10093C006E0001610B454570726F6D2052656164EC
:10094C000145062520446F6E65000D44657669638C
:10095C006520457261736564015101470B4F6B2033
:10096C005374617274696E678B8A8B88010E026E88
:10097C00036A49EC00F042C029F0020E106EC2DE90
:10098C002CC012F0136A12C005F013C006F00A0E48
:10099C00096E0A6AA2DF00C04CF001C04DF0F40EE3
:1009AC004C5C126E010E4D58136E12C005F013C044
:1009BC0006F00A0E096E0A6A5CDF05C050F0060EDE
:1009CC00106EA0DE2CC014F050C044F0010E156E59
:1009DC002BDC2C0E436E010E156EF0DC14C044F0B3
:1009EC00010E156E21DC0D0E436E010E156EE6DC4C
:1009FC000A0E436E010E156EE1DCA00E1B6E1CC0C0
:100A0C0019F01DC01AF050C01EF06DEC00F01C2A3D
:100A1C00D8B41D2AA00E1B6E1CC019F01DC01AF0F4
:100A2C0014C01EF06DEC00F01C2AD8B41D2A1CC09A
:100A3C0026F01DC027F0010E026E036A49EC00F08F
:060A4C008B9A8B9812004A
:020000040030CA
:0E000000FF281F1EFF0881FF03C003E003401E
:00000001FF
